:04000000C1EF23F039
:1000080000C022F001C021F002C020F003C01FF0A0
:1000180004C01EF005C01DF006C01CF007C01BF090
:1000280008C01AF009C019F00AC018F00BC017F080
:100038000CC016F00EC015F0F2A41ED09E0ED76E9E
:10004800580ED66E36C000F037C001F038C002F046
:1000580039C003F00A0E046ED70E056E230E066E25
:10006800770E076ED8D900C036F001C037F002C04D
:1000780038F003C039F0F294F2A282D084B613D0DB
:100088005E1C006E00C05EF000B002D08B9001D004
:100098008B80005203E1CA6ABD6A04D0060ECA6E9C
:1000A8000F0EBD6E6CD080B802D0D88001D0D89029
:1000B800006AD8B0002A5E5000160AE0010E5B6E96
:1000C8002850000A03E1010E286E01D0286A57D093
:1000D80080B002D0048001D004902850000A000E9D
:1000E800D8A4010E016E006A04B0002A015000165F
:1000F8005E50001603E0010E356E41D080B202D08A
:10010800048001D004902850000A000ED8A4010EE3
:10011800016E006A04B0002A015000165E500016F5
:1001280003E0010E3A6E2BD080B402D0048001D0D7
:1001380004902850000A000ED8A4010E016E006A2F
:1001480004B0002A015000165E50001603E0010EAC
:10015800276E15D080B602D0048001D004902850B4
:10016800000A000ED8A4010E016E006A04B0002A2D
:10017800015000165E50001602E0010E5D6EF2920C
:1001880022C000F021C001F020C002F01FC003F01F
:100198001EC004F01DC005F01CC006F01BC007F00F
:1001A8001AC008F019C009F018C00AF017C00BF0FF
:0A01B80016C00CF015C00EF0110087
:0E01C200026A016A006A086A036A000E1200EF
:0801D0000AAE029E000E1200AF
:1001D8000B820BAEF6EF00F0036802680168006856
:0801E8000A360232FF0E12007C
:1001F0000B840BAE03EF01F0010E036E026A016A7D
:0A020000006A0A360232FF0E1200F7
:10020A000CB047EF01F00CA2EDEF01F00E6A000E00
:10021A0002645EEF01F0F00E0214D8A429EF01F097
:10022A00023A01380F0B02260138F00B016E003832
:10023A000F0B01260038F00B006E08380F0B002652
:10024A000838F00B086E0E84D89002BE42EF01F017
:10025A0008360036013602360E2A02BE42EF01F097
:10026A0008360036013602360E2A02BE42EF01F087
:10027A0008360036013602360E2A0E500364E3EFC2
:10028A0001F0035E0BBC08AEE8EF01F0D880800EE7
:10029A0008640030000E002201220222D8A0E8EFF2
:1002AA0001F0023201320032034AEDEF01F0E8EFC9
:1002BA0001F001C002F000C001F008C000F0086AB5
:1002CA00000E0E86026495EF01F0F00E0214D8A417
:1002DA007DEF01F0023A01380F0B02260138F00BCC
:1002EA00016E00380F0B01260038F00B006E0E84E9
:1002FA00D89002BE42EF01F00036013602360E2ACD
:10030A0002BE42EF01F00036013602360E2A02BE64
:10031A0042EF01F00036013602360E2A42EF01F0B2
:10032A0001C002F000C001F0006A000E0E960E88AD
:10033A000264C2EF01F0F00E0214D8A4ADEF01F08E
:10034A00023A01380F0B02260138F00B016E0E84B7
:10035A00D89002BE42EF01F0013602360E2A02BEE2
:10036A0042EF01F0013602360E2A02BE42EF01F0D8
:10037A00013602360E2A42EF01F001C002F0016A8C
:10038A00000E0E860264F2EF01F0F00E0214D8A4F9
:10039A00D1EF01F0023A0E84D89002BE42EF01F08A
:1003AA0002360E2A02BE42EF01F002360E2A02BEC1
:1003BA0042EF01F002360E2A42EF01F0010E0C6EF6
:1003CA0012DFF5EF01F0020E0C6EFDDEF5EF01F023
:1003DA00040E0C6EFCDEF5EF01F0080E0C6EECDE7E
:0203EA001200FF
:0A03EC00530E0D6E0D2EFED7120009
:1003F6000B800BAE07EF02F0026A0AAEFF0E026E2A
:0C040600016E006E0A360232FF0E12007A
:0C041200000000000000000000001200CC
:10041E00025006180E6E086A096A0B6A03500764CA
:10042E0002EF03F006500A6E068E028E03500B6E1C
:10043E000750036E000E0B6452EF02F00B50075E76
:10044E00D8B4F3EF02F0070E0764C1EF02F0075EB7
:10045E0000C008F001C000F002C001F0026A074EB1
:10046E00F3EF02F0076496EF02F0075E00C008F0AB
:10047E0001C000F0016A074EF3EF02F0076474EF5B
:10048E0002F0075E00C008F0006A074EF3EF02F0BC
:10049E0007645BEF02F00AC002F005C001F004C071
:1004AE0000F0086A1CEF04F0030E076466EF02F01A
:1004BE00075E08380F0B086E074EF3EF02F0D89068
:1004CE000832074EF3EF02F0D8900832074EF3EFE2
:1004DE0002F0D8900832F3EF02F0030E076485EFB6
:1004EE0002F0075E08380F0B086E0038F00B082676
:1004FE0000380F0B006E074EF3EF02F0D89000326B
:10050E000832074EF3EF02F0D89000320832074E51
:10051E00F3EF02F0D89000320832F3EF02F0030E40
:10052E000764ADEF02F0075E08380F0B086E003857
:10053E00F00B082600380F0B006E0138F00B00266A
:10054E0001380F0B016E074EF3EF02F0D890013217
:10055E0000320832074EF3EF02F0D890013200322B
:10056E000832074EF3EF02F0D89001320032083213
:10057E00F3EF02F0030E0764DEEF02F0075E0838B9
:10058E000F0B086E0038F00B082600380F0B006EAC
:10059E000138F00B002601380F0B016E0238F00BFC
:1005AE00012602380F0B026E074EF3EF02F0D890C1
:1005BE000232013200320832074EF3EF02F0D890C9
:1005CE000232013200320832074EF3EF02F0D890B9
:1005DE000232013200320832096A000E0EAEE7EF27
:1005EE0003F0081E001E011E021E082A0022012210
:1005FE000222E7EF03F00750D8A408EF03F01CEF38
:10060E0004F0096A02C00AF0028E068E0750035CDF
:10061E00076ED8B4DAEF03F0070E0764A8EF03F005
:10062E00075E0450096E0550046E0650056E066A8C
:10063E00074EDAEF03F0070E07647DEF03F0075E57
:10064E000450096E0550046E056A074EDAEF03F08A
:10065E00070E07645BEF03F0075E0450096E046A31
:10066E00074EDAEF03F0070E076442EF03F00AC0FD
:10067E0002F01CEF04F0030E07644DEF03F0075E6B
:10068E0009380F0B096E074EDAEF03F0D8900932D6
:10069E00074EDAEF03F0D8900932074EDAEF03F087
:1006AE00D8900932DAEF03F0030E07646CEF03F013
:1006BE00075E09380F0B096E0438F00B0926043853
:1006CE000F0B046E074EDAEF03F0D89004320932A6
:1006DE00074EDAEF03F0D89004320932074EDAEF04
:1006EE0003F0D89004320932DAEF03F0030E0764F8
:1006FE0094EF03F0075E09380F0B096E0438F00B08
:10070E00092604380F0B046E0538F00B0426053845
:10071E000F0B056E074EDAEF03F0D8900532043258
:10072E000932074EDAEF03F0D8900532043209325F
:10073E00074EDAEF03F0D890053204320932DAEFC1
:10074E0003F0030E0764C5EF03F0075E09380F0BC5
:10075E00096E0438F00B092604380F0B046E0538A9
:10076E00F00B042605380F0B056E0638F00B052628
:10077E0006380F0B066E074EDAEF03F0D8900632EE
:10078E00053204320932074EDAEF03F0D890063202
:10079E00053204320932074EDAEF03F0D8900632F2
:1007AE00053204320932086A000E0EAEE7EF03F08E
:1007BE00091E041E051E061E092A042205220622F3
:1007CE00095008260450002205500122065002222C
:1007DE000EBEFEEF03F0D8A00DEF04F00232013290
:1007EE0000320832033E0DEF04F017EF04F0D8B0DC
:1007FE0012EF04F0000E081E001E011E021E082A33
:10080E000022012202220A7E12EF04F0010E0C6E6B
:10081E00F5DC1EEF04F0020E0C6EF0DC1EEF04F0A1
:10082E00040E0C6ED2DC1EEF04F0000E0C6E1200E5
:10083E00240E0C6EB50E0D6E0D2EFED70C2EFCD7A3
:06084E0000000000120092
:10085400086A096A000E07620364AFEF04F00250ED
:1008640006180A6E075003267E0ED8A040EF04F047
:10087400035ED8B0B3EF04F044EF04F0035ED8A0F5
:10088400B7EF04F0028E068E02C00EF001C00BF02A
:1008940000C00DF000500402F4CF0CF0015005022A
:1008A400F4CF00F0F3CF08F00402F3500C26F45018
:1008B4000822000E00220D500502F3500C26F450BD
:1008C4000822000E002202500402F3500826F450BD
:1008D400002202500502016A000E0122F350002694
:1008E400F45001220D500602F3500826F450002261
:1008F400026A000E012202220B500602F350002667
:10090400F4500122000E02220E500602F35001267A
:10091400F450022202BE97EF04F008360036013686
:1009240002360306D8B4B7EF04F0AAEF04F0D88077
:10093400800E08640030000E002201220222D8A09A
:10094400AAEF04F0023201320032034AB3EF04F09A
:100954000AAE029E000EB9EF04F0010E30DCB9EFCE
:1009640004F0020E37DCB9EF04F0040E3FDC120091
:10097400086A080E0C6E003408360450085ED8B0BD
:0E09840002D00826D89000360C2EF5D71200AF
:100992000050086E0150006E0250016E0350026E4C
:1009A200036A0B6A0C6A9E0E036E0A6A02AEE6EFD7
:1009B20004F0081E001E011E021E082AD8B4002AD6
:1009C200D8B4012AD8B4022A0A8E020E0C6E1CDC9C
:0209D200120011
:1009D4000D6A086A0050D8B4000C04180A6E0ABEE6
:1009E4000D1E0B6A04AE02D0041E042A00AE02D00F
:1009F400001E002A005004100A6E0ABE1FD00450C4
:100A0400085E003600340836045008260036060E08
:100A14000C6E00340836045000B0085E00A00826AE
:100A240000360C2EF6D700A008260BB015D00DAE5C
:100A3400000C001E002A081E082A000C04AE09D06F
:100A440000BE04D00050086E006AF1D7006A002A84
:100A5400000C001E0B2AD3D7082A0450085CD8A423
:0E0A6400E6D7086A002A00AEE2D7FF0C1200A7
:100A72000001BABF02D0819401D08184BABD02D0F4
:100A8200819601D08186BABB02D0819801D081883B
:100A9200BAB902D0819A01D0818A63B002D0818E24
:100AA20001D0819E818CB4DC819CBAB702D0819442
:100AB20001D08184BAB502D0819601D08186BAB3C1
:100AC20002D0819801D08188BAB102D0819A01D036
:100AD200818A63B002D0818E01D0819E818C98DCA4
:0E0AE200819C63A002D0AADE01D07FDC12004E
:100AF0000B6A0C6A086A0350D8B4FCEF05F002C018
:100B00000AF0028E9E0E035E03AEECEF05F0036C5E
:100B1000080E035CD8A0B9EF05F0036E083600C0DC
:100B200008F001C000F002C001F0026A080E035C88
:100B3000D8A0B9EF05F0036E083600C008F001C078
:100B400000F0016A080E035CD8A0B9EF05F0036E4F
:100B5000083600C008F0006A080E035CD8A0B9EFA0
:100B600005F0036E0836086A0350D8A4D890C5EF84
:100B700005F00350D8B4C5EF05F0D8900232013229
:100B800000320832032EBDEF05F00BBC08A0D6EFF3
:100B900005F0D8A0D6EF05F0082AD8B4002AD8B4BA
:100BA000012AD8B4022A02BE00EF06F00AAEFCEF1A
:100BB00005F0021E011E001E081E082AD8B4002AD5
:100BC000D8B4012AD8B4022AFCEF05F0026A016AFF
:100BD000006A086AFCEF05F00B800BAE07EF06F029
:100BE000026A0AAE07EF06F0026E016E006E086E32
:100BF0000A36023207EF06F00C6A000E08EF06F024
:100C0000010E0C6E000EFBEC01F008EF06F0FF0E7B
:100C10000250036E0150026E0050016E0850006ECB
:020C20001200C0
:080C2200067E0FEC02F0120047
:100C2A000A6A0350D8A40A800750D8A40A820A5034
:100C3A00D8B478EF06F0030AD8B431EF06F00AB058
:100C4A002CEF06F006AE76EF06F074EF06F002AE71
:100C5A0074EF06F076EF06F00250800B0A6E029EE1
:100C6A000650800B069E0A18D8B442EF06F00A50C6
:100C7A00D8B474EF06F076EF06F00750035CD8B4E8
:100C8A004CEF06F0D8A068EF06F06EEF06F00650BB
:100C9A00025CD8B456EF06F0D8A068EF06F06EEF03
:100CAA0006F00550015CD8B460EF06F0D8A068EFF2
:100CBA0006F06EEF06F00450005CD8B478EF06F048
:100CCA00D8B06EEF06F00A52D8B476EF06F074EF99
:100CDA0006F00A52D8B474EF06F076EF06F0D88020
:0E0CEA001200D8901200D880D8841200120098
:100CF8000134083609360450085E0550D8A0053C72
:100D0800095E003601360F0E0C6E013408360936BE
:100D1800045000A006D0085E0550D8A0053C095E26
:100D280005D008260550D8B0053C092600360136FE
:100D38000C2EEBD700B006D0045008260550D8B0CA
:080D4800053C09260000120021
:080D50000B6A0B86FF0E120076
:100D5800B0C000F0016A026A036AFF0E0016000EB6
:100D6800011600C0B5F001C0B6F07F0E005C026E3F
:100D7800000E0158036E02C0B5F003C0B6F0800E35
:100D88000318006E800E005C02E1000E025C21E296
:100D9800046A056A066A076AADC000F0AEC001F0D1
:100DA800AFC002F0B0C003F03CDF010ED8B0000EB7
:100DB800006E005209E0000E006E000E016E800EFB
:100DC800026E7F0E036E5AD0006A016A026A036AD5
:100DD80055D0000E006E0001B651005C02E1B5511D
:100DE800180809E2ADC000F0AEC001F0AFC002F0D3
:100DF800B0C003F043D0ADC000F0AEC001F0AFC04A
:100E080002F0B0C003F070DEC0DD00C0B1F001C078
:100E1800B2F002C0B3F003C0B4F000C004F001C0E7
:100E280005F002C006F003C007F0ADC000F0AEC088
:100E380001F0AFC002F0B0C003F0F3DE010ED8B08D
:100E4800000E006E005212E0000E046E000E056ED9
:100E5800000E066E7F0E076EB1C000F0B2C001F042
:100E6800B3C002F0B4C003F0D8DE08D0B1C000F0BF
:0E0E7800B2C001F0B3C002F0B4C003F012002B
:100E86000B6A0A6A096A00500402F4CF09F0F3CF2C
:100E960008F001500502F4CF0BF0F3CF0AF0005032
:100EA6000502F3500926F4500A22E86A0B22015083
:100EB6000402F3500926F4500A22E86A0B2208C0FD
:100EC60000F009C001F00AC002F00BC003F01200E6
:100ED6000001AD51390806E3300EAD5D03E3010EA6
:080EE600006E01D0006A120049
:100EEE000450000A08E10550000A05E1FF0E006EED
:100EFE007F0E016E57D00D6A096A086A0150001004
:100F0E00D8B4000C015005180A6E0ABE0D1E0B6AED
:100F1E0005AE05D0041E051E042AD8B4052A01AE5E
:100F2E0005D0001E011E002AD8B4012A015005105A
:100F3E000A6E0ABE10D0D9DE0BB020D00DAE000C5A
:100F4E00001E011E002AD8B4012A081E091E082AF6
:100F5E00D8B4092A000C05AE0DD001BE07D0015041
:100F6E00096E0050086E016A006AE8D7016A006ACD
:100F7E00002A000C011E001E0B2ADDD7082AD8B449
:100F8E00092A0450085CD8A4D9D70550095CD8A406
:100F9E00D5D7096A086A002AD8B4012A01AECED77D
:060FAE000000FF0C120020
:100FB400B4C000F0B5C001F0000E0001B5BFFF0ED3
:100FC400026E036E00360090013602360336003698
:100FD4000090013602360336B1510024F66EB25148
:100FE4000120F76EB3510220F86E0900F5CFB6F078
:100FF4000900F5CFB7F00900F5CFB8F00900F5CF37
:10100400B9F0B451B51148E0ADC000F0AEC001F084
:10101400AFC002F0B0C003F0B6C004F0B7C005F032
:10102400B8C006F0B9C007F013DC010EB45F000EBF
:10103400B55BB4C004F0B5C005F0000EB5BFFF0E3B
:10104400066E076E043604900536063607360436F7
:101054000490053606360736B1510424F66EB251B3
:101064000520F76EB3510620F86E0900F5CF04F0A1
:101074000900F5CF05F00900F5CF06F00900F5CF1A
:1010840007F00FEC02F000C0B6F001C0B7F002C0E8
:10109400B8F003C0B9F0B5D7B6C000F0B7C001F0DE
:0A10A400B8C002F0B9C003F012005A
:1010AE0003500718D8A46BEF08F002500618D8A406
:1010BE006BEF08F001500518D8A46BEF08F0005044
:0E10CE000418D8B4D8841200D894120012006E
:1010DC006E0E0001AD5DD8A0C9D0640E046EADC01B
:1010EC0000F042DC120E0024056E066A000E062289
:1010FC0005C000F006C001F0000E06BEFF0E026E29
:10110C00036E00360090013602360336003600902E
:10111C00013602360336920E0024F66E4E0E012076
:10112C00F76E000E0220F86E0900F5CF00F00900F2
:10113C00F5CF01F00900F5CF02F00900F5CF03F06F
:10114C00000E046E000E056E000E066E7E0E076E0F
:10115C002AEC04F000C0AEF001C0AFF002C0B0F059
:10116C0003C0B1F0640E046EADC000F0BAEC04F034
:10117C0008C000F00A0E046EBAEC04F0090E00244C
:10118C00056E066A000E062205C000F006C001F0CE
:10119C00000E06BEFF0E026E036E00360090013686
:1011AC000236033600360090013602360336920EB4
:1011BC000024F66E4E0E0120F76E000E0220F86E23
:1011CC000900F5CF00F00900F5CF01F00900F5CFCB
:1011DC0002F00900F5CF03F0AEC004F0AFC005F08B
:1011EC00B0C006F0B1C007F02AEC04F000C0AEF0BD
:1011FC0001C0AFF002C0B0F003C0B1F00A0E046E33
:10120C00ADC000F0BAEC04F008C000F000C001F072
:10121C00000E026E036E046E013601900236033628
:10122C00043601360190023603360436920E012440
:10123C00F66E4E0E0220F76E000E0320F86E0900BB
:10124C00F5CF00F00900F5CF01F00900F5CF02F061
:10125C000900F5CF03F0AEC004F0AFC005F0B0C08C
:10126C0006F0B1C007F02AEC04F0B1D0AD510A0879
:10127C00D8B07ED00A0E046EADC000F0BAEC04F00B
:10128C00090E0024056E066A000E062205C000F049
:10129C0006C001F0000E06BEFF0E026E036E003695
:1012AC0000900136023603360036009001360236C5
:1012BC000336920E0024F66E4E0E0120F76E000ED1
:1012CC000220F86E0900F5CF00F00900F5CF01F00F
:1012DC000900F5CF02F00900F5CF03F0000E046E03
:1012EC00000E056E000E066E7E0E076E2AEC04F0E4
:1012FC0000C0AEF001C0AFF002C0B0F003C0B1F05E
:10130C000A0E046EADC000F0BAEC04F008C000F098
:10131C0000C001F0000E026E036E046E01360190E7
:10132C000236033604360136019002360336043693
:10133C00920E0124F66E4E0E0220F76E000E032064
:10134C00F86E0900F5CF00F00900F5CF01F00900A7
:10135C00F5CF02F00900F5CF03F0AEC004F0AFC03A
:10136C0005F0B0C006F0B1C007F02AEC04F02FD0A5
:10137C00ADC000F0000E016E026E036E00360090E0
:10138C00013602360336003600900136023603363B
:10139C00920E0024F66E4E0E0120F76E000E022007
:1013AC00F86E0900F5CF00F00900F5CF01F0090047
:1013BC00F5CF02F00900F5CF03F0000E046E000E1D
:1013CC00056E000E066E7E0E076E2AEC04F01200FF
:1013DC000B6A0C6A0A6A086A0350D8B476EF0AF0F2
:1013EC00028E9E0E035E03BE01EF0AF0D8B401EF2D
:1013FC000AF066EF0AF0036C080E035CD8A033EF1A
:10140C000AF0036E083600C008F001C000F002C0FC
:10141C0001F0026A080E035CD8A033EF0AF0036EE9
:10142C00083600C008F001C000F0016A080E035C29
:10143C00D8A033EF0AF0036E083600C008F0006A3B
:10144C00080E035CD8A033EF0AF0036E0836086A66
:10145C000350D8A4D8903FEF0AF00350D8B43FEF14
:10146C000AF0D8900232013200320832032E37EFE4
:10147C000AF00BBC08A050EF0AF0D8A050EF0AF00D
:10148C00082AD8B4002AD8B4012AD8B4022A02BE39
:10149C007AEF0AF00AAE76EF0AF0021E011E001E69
:1014AC00081E082AD8B4002AD8B4012AD8B4022AB3
:1014BC0076EF0AF0026A016A006A086A76EF0AF0AF
:1014CC000B800BAE80EF0AF0026A0AAE80EF0AF0D6
:1014DC00026E016E006E086E0A36023280EF0AF060
:1014EC00000E0C6A81EF0AF0010E0C6EFBEC01F0A1
:1014FC0081EF0AF0FF0E0250036E0150026E005095
:08150C00016E0850006E120090
:0E1514006390ADC0BAF039EC05F063801200B0
:10152200800E0001AD19006E800E000A005CD8B07A
:101532006DD1AD510008016E01C0ADF0800E0118F1
:10154200006E800E6E0A005CD8A0C0D0640E046EDD
:10155200ADC000F0EAEC04F0120E0024056E000E9D
:1015620000BEFF0E066E000E062205C000F006C089
:1015720001F0000E06BEFF0E026E036E00360090F2
:101582000136023603360036009001360236033643
:10159200920E0024F66E4E0E0120F76E000E02200F
:1015A200F86E0900F5CFAEF00900F5CFAFF00900F3
:1015B200F5CFB0F00900F5CFB1F0640E046EADC006
:1015C20000F0EAEC04F008C000F00A0E046EEAEC47
:1015D20004F0090E0024056E000E00BEFF0E066E1A
:1015E200000E062205C000F006C001F0000E06BE85
:1015F200FF0E026E036E003600900136023603368D
:1016020000360090013602360336920E0024F66E42
:101612004E0E0120F76E000E0220F86E0900F5CF83
:1016220000F00900F5CF01F00900F5CF02F0090042
:10163200F5CF03F0AEC004F0AFC005F0B0C006F0C5
:10164200B1C007F02AEC04F000C0AEF001C0AFF068
:1016520002C0B0F003C0B1F00A0E046EADC000F0DB
:10166200EAEC04F008C000F000C001F0000E00BE79
:10167200FF0E026E036E046E0136019002360336CF
:10168200043601360190023603360436920E0124E6
:10169200F66E4E0E0220F76E000E0320F86E090061
:1016A200F5CF00F00900F5CF01F00900F5CF02F007
:1016B2000900F5CF03F0AEC004F0AFC005F0B0C032
:1016C20006F0B1C007F02AEC04F007D2800E0A0A35
:1016D200006E800EAD19005C71E20A0E046EADC0A0
:1016E20000F0EAEC04F0090E0024056E000E00BEC4
:1016F200FF0E066E000E062205C000F006C001F0C5
:10170200000E06BEFF0E026E036E0036009001361A
:101712000236033600360090013602360336920E48
:101722000024F66E4E0E0120F76E000E0220F86EB7
:101732000900F5CFAEF00900F5CFAFF00900F5CF03
:10174200B0F00900F5CFB1F00A0E046EADC000F0A2
:10175200EAEC04F008C000F000C001F0000E00BE88
:10176200FF0E026E036E046E0136019002360336DE
:10177200043601360190023603360436920E0124F5
:10178200F66E4E0E0220F76E000E0320F86E090070
:10179200F5CF00F00900F5CF01F00900F5CF02F016
:1017A2000900F5CF03F0AEC004F0AFC005F0B0C041
:1017B20006F0B1C007F02AEC04F08FD1ADC000F002
:1017C200000EADBFFF0E016E026E036E003600907A
:1017D20001360236033600360090013602360336F1
:1017E200920E0024F66E4E0E0120F76E000E0220BD
:1017F200F86E0900F5CF00F00900F5CF01F00900FD
:10180200F5CF02F00900F5CF03F067D1800EAD19D4
:10181200006E800E6E0A005CD8A0C0D0640E046E0A
:10182200ADC000F0EAEC04F0120E0024056E000ECA
:1018320000BEFF0E066E000E062205C000F006C0B6
:1018420001F0000E06BEFF0E026E036E003600901F
:101852000136023603360036009001360236033670
:10186200C60E0024F66E4E0E0120F76E000E022008
:10187200F86E0900F5CFAEF00900F5CFAFF0090020
:10188200F5CFB0F00900F5CFB1F0640E046EADC033
:1018920000F0EAEC04F008C000F00A0E046EEAEC74
:1018A20004F0090E0024056E000E00BEFF0E066E47
:1018B200000E062205C000F006C001F0000E06BEB2
:1018C200FF0E026E036E00360090013602360336BA
:1018D20000360090013602360336C60E0024F66E3C
:1018E2004E0E0120F76E000E0220F86E0900F5CFB1
:1018F20000F00900F5CF01F00900F5CF02F0090070
:10190200F5CF03F0AEC004F0AFC005F0B0C006F0F2
:10191200B1C007F02AEC04F000C0AEF001C0AFF095
:1019220002C0B0F003C0B1F00A0E046EADC000F008
:10193200EAEC04F008C000F000C001F0000E00BEA6
:10194200FF0E026E036E046E0136019002360336FC
:10195200043601360190023603360436C60E0124DF
:10196200F66E4E0E0220F76E000E0320F86E09008E
:10197200F5CF00F00900F5CF01F00900F5CF02F034
:101982000900F5CF03F0AEC004F0AFC005F0B0C05F
:1019920006F0B1C007F02AEC04F09FD0800E0A0ACC
:1019A200006E800EAD19005C71E20A0E046EADC0CD
:1019B20000F0EAEC04F0090E0024056E000E00BEF1
:1019C200FF0E066E000E062205C000F006C001F0F2
:1019D200000E06BEFF0E026E036E00360090013648
:1019E2000236033600360090013602360336C60E42
:1019F2000024F66E4E0E0120F76E000E0220F86EE5
:101A02000900F5CFAEF00900F5CFAFF00900F5CF30
:101A1200B0F00900F5CFB1F00A0E046EADC000F0CF
:101A2200EAEC04F008C000F000C001F0000E00BEB5
:101A3200FF0E026E036E046E01360190023603360B
:101A4200043601360190023603360436C60E0124EE
:101A5200F66E4E0E0220F76E000E0320F86E09009D
:101A6200F5CF00F00900F5CF01F00900F5CF02F043
:101A72000900F5CF03F0AEC004F0AFC005F0B0C06E
:101A820006F0B1C007F02AEC04F027D0ADC000F098
:101A9200000EADBFFF0E016E026E036E00360090A7
:101AA200013602360336003600900136023603361E
:101AB200C60E0024F66E4E0E0120F76E000E0220B6
:101AC200F86E0900F5CF00F00900F5CF01F009002A
:0C1AD200F5CF02F00900F5CF03F0120080
:101ADE000B6A0A6A096A086A0E6A033408360450E9
:101AEE00085E0550D8A0053C095E0650D8A0063CFD
:101AFE000A5E0750D8A0073C0B5EE86AD8A0010E1C
:101B0E000E5E0336070E0C6E0334083609360A369F
:101B1E000B360E36045003A012D0085E0550D8A026
:101B2E00053C095E0650D8A0063C0A5E0750D8A0B8
:101B3E00073C0B5EE86AD8A0010E0E5E11D0082697
:101B4E000550D8B0053C09260650D8B0063C0A26EA
:101B5E000750D8B0073C0B26E86AD8B0010E0E2607
:101B6E0003360C2ED1D70234083609360A360B3618
:101B7E000E36045003A012D0085E0550D8A0053CC6
:101B8E00095E0650D8A0063C0A5E0750D8A0073C56
:101B9E000B5EE86AD8A0010E0E5E11D00826055025
:101BAE00D8B0053C09260650D8B0063C0A26075088
:101BBE00D8B0073C0B26E86AD8B0010E0E260236C6
:101BCE00070E0C6E0234083609360A360B360E3600
:101BDE00045002A012D0085E0550D8A0053C095E44
:101BEE000650D8A0063C0A5E0750D8A0073C0B5EF4
:101BFE00E86AD8A0010E0E5E11D008260550D8B0A6
:101C0E00053C09260650D8B0063C0A260750D8B027
:101C1E00073C0B26E86AD8B0010E0E2602360C2EB3
:101C2E00D1D70134083609360A360B360E36045033
:101C3E0002A012D0085E0550D8A0053C095E0650E1
:101C4E00D8A0063C0A5E0750D8A0073C0B5EE86A97
:101C5E00D8A0010E0E5E11D008260550D8B0053C56
:101C6E0009260650D8B0063C0A260750D8B0073CC5
:101C7E000B26E86AD8B0010E0E260136070E0C6E42
:101C8E000134083609360A360B360E36045001A0DA
:101C9E0012D0085E0550D8A0053C095E0650D8A0AB
:101CAE00063C0A5E0750D8A0073C0B5EE86AD8A037
:101CBE00010E0E5E11D008260550D8B0053C09263F
:101CCE000650D8B0063C0A260750D8B0073C0B2663
:101CDE00E86AD8B0010E0E2601360C2ED1D700348C
:101CEE00083609360A360B360E36045001A012D0CD
:101CFE00085E0550D8A0053C095E0650D8A0063CEB
:101D0E000A5E0750D8A0073C0B5EE86AD8A0010E09
:101D1E000E5E11D008260550D8B0053C0926065097
:101D2E00D8B0063C0A260750D8B0073C0B26E86A06
:101D3E00D8B0010E0E260036070E0C6E0034083693
:101D4E0009360A360B360E36045000A012D0085E45
:101D5E000550D8A0053C095E0650D8A0063C0A5E88
:101D6E000750D8A0073C0B5EE86AD8A0010E0E5EA5
:101D7E0011D008260550D8B0053C09260650D8B01B
:101D8E00063C0A260750D8B0073C0B26E86AD8B0A6
:101D9E00010E0E2600360C2ED1D700B00ED00450F8
:101DAE0008260550D8B0053C09260650D8B0063C8A
:0C1DBE000A260750D8B0073C0B26120084
:101DCA000450000A12E10550000A0FE10650000A09
:101DDA000CE10750000A09E1FF0E006EFF0E016ECA
:101DEA007F0E026EFF0E036EA8D0086A096A0750BA
:101DFA00D8B490EF0FF00350D8B495EF0FF002501B
:101E0A0006180A6E028E068E0E6A02C008F001C01B
:101E1A000CF000C00DF004500D5E0550D8A0053C32
:101E2A000C5E0650D8A0063C085E086A0C6A0D6A69
:101E3A00D8A027EF0FF0D8900232013200320832D0
:101E4A00010E0E6E0750035ED8A034EF0FF07E0E1F
:101E5A000E240326D8B09AEF0FF03AEF0FF07E0E59
:101E6A000E240326D8A09FEF0FF0180E0B6E0D3626
:101E7A000C3608360036013602360E360450005E3D
:101E8A000550D8A0053C015E0650D8A0063C025E6B
:101E9A0006340E120EA055EF0FF00D8060EF0FF012
:101EAA00045000260550D8B0053C01260650D8B08B
:101EBA00062802260D900B2E3CEF0FF086EF0FF04E
:101ECA00D8900036013602360E360450005E0550B0
:101EDA00D8A0053C015E0650D8A0063C025E063436
:101EEA000E10010B0D26D8B00C2AD8B4082AD8A493
:101EFA0086EF0FF008320C320D32032AD8B49AEF6B
:101F0A000FF00AAE089E0850026E0C50016E0D507A
:101F1A00006EA2EF0FF0010EA8EC06F0A2EF0FF090
:101F2A00020EE1EC00F0A2EF0FF0040EECEC00F070
:0C1F3A00A2EF0FF0080EF8EC00F012000F
:101F46000050086E0150006E0250016E0350026E82
:101F5600036A0B6A0C6A9E0E036E0A6A020E0C6E08
:061F660005EC01F0120081
:101F6C000FD0800E7C6E19D0C00E7C6E16D0940EE5
:101F7C007C6E13D0D40E7C6E10D0800E7C6E0DD087
:101F8C007C50010AEEE07C50020AEEE07C50030A21
:101F9C00EEE07C50040AEEE0F0D77D04006E7C503D
:101FAC00002600C07CF0638000C0BAF039EC05F06C
:0E1FBC0063907EC0BAF039EC05F0638012002D
:101FCA000FD0800E7C6E19D0C00E7C6E16D0940E87
:101FDA007C6E13D0D40E7C6E10D0800E7C6E0DD029
:101FEA007C50010AEEE07C50020AEEE07C50030AC3
:101FFA00EEE07C50040AEEE0F0D77D04006E7C50DF
:10200A00002600C07CF000C0BAF039EC05F06390FD
:10201A00806B80517E24E96E000E7F20EA6EEE52BC
:10202A000CE080517E24E96E000E7F20EA6EEECF2E
:0E203A00ADF08AEC0AF0802BECD76380120028
:102048000001806B046A056A066A076A7CC000F0B2
:102058007DC001F07EC002F07FC003F015EC06F0F1
:10206800010ED8B0000E006E005203E07E7E010E15
:10207800806F7CC000F07DC001F07EC002F07FC0A0
:1020880003F0830E046EF90E056E220E066E7C0EAA
:10209800076E2AEC04F000C07CF001C07DF002C09D
:1020A8007EF003C07FF000C0ADF001C0AEF002C00A
:1020B800AFF003C0B0F0ACEC06F000C004F001C013
:1020C80005F002C006F003C007F07CC000F07DC038
:1020D80001F07EC002F07FC003F011EC06F0000EA4
:1020E800046E000E056E000E066E810E076E2AEC59
:1020F80004F000C07CF001C07DF002C07EF003C097
:102108007FF000C004F001C005F002C006F003C073
:1021180007F0000E006E000E016E000E026E800EBB
:10212800036E15EC06F0010ED8B0000E006E0052DA
:1021380020E0000E046E000E056E000E066E800E86
:10214800076E7CC000F07DC001F07EC002F07FC049
:1021580003F011EC06F000C07CF001C07DF002C075
:102168007EF003C07FF000018053010ED8A4000E5A
:10217800806F7CC004F07DC005F07EC006F07FC093
:1021880007F0000E006E000E016E000E026E7F0E4C
:10219800036E15EC06F0010ED8B0000E006E00526A
:1021A8001AE07CC004F07DC005F07EC006F07FC058
:1021B80007F0000E006E000E016E000E026E800E1B
:1021C800036E11EC06F000C07CF001C07DF002C087
:1021D8007EF003C07FF000017CC000F07DC001F0FC
:1021E8007EC002F07FC003F07CC004F07DC005F023
:1021F8007EC006F07FC007F02AEC04F000C08AF029
:1022080001C08BF002C08CF003C08DF000C0ADF0AF
:1022180001C0AEF002C0AFF003C0B0F0720EB16FF3
:102228004F0EB26F000EB36F040EB46F000EB56F91
:10223800DAEC07F07CC004F07DC005F07EC006F043
:102248007FC007F02AEC04F000C07CF001C07DF0EC
:1022580002C07EF003C07FF08AC0ADF08BC0AEF044
:102268008CC0AFF08DC0B0F0A80EB16F4F0EB26F3A
:10227800000EB36F030EB46F000EB56FDAEC07F003
:1022880000C004F001C005F002C006F003C007F06A
:102298007CC000F07DC001F07EC002F07FC003F07A
:1022A80090DD00C07CF001C07DF002C07EF003C06C
:1022B8007FF0000180530DE0000E7C18006E000EC8
:1022C8007D18016E800E7E18026E000E7F18036E58
:1022D80008D07CC000F07DC001F07EC002F07FC055
:0422E80003F01200ED
:1022EC000001A56BA66B996B9A6B8CC000F08DC02E
:1022FC0001F08EC002F0010E8C27000E8D238E2370
:10230C0000C0F6FF01C0F7FF02C0F8FF0900F5CFCF
:10231C0000F000C096F00052D8B486EF21F0965130
:10232C00250A0BE08AC0E1FF8BC0E2FF96C0E6FFF6
:10233C008A4B8B2BA54BA62BD8D7976B986B996B8D
:10234C009A6B23D09987010E8C27000E8D238E2338
:10235C0059D09981010E8C27000E8D238E2352D0DB
:10236C009983010E8C27000E8D238E234BD09A87D8
:10237C00010E8C27000E8D238E2344D09985010EDF
:10238C008C27000E8D238E233DD08CC0F6FF8DC084
:10239C00F7FF8EC0F8FF0900F5CF01F001502D0AB0
:1023AC00D1E08CC0F6FF8DC0F7FF8EC0F8FF09009E
:1023BC00F5CF01F00150200ACCE08CC0F6FF8DC0A7
:1023CC00F7FF8EC0F8FF0900F5CF01F001502B0A82
:1023DC00C7E08CC0F6FF8DC0F7FF8EC0F8FF090078
:1023EC00F5CF01F00150230AC2E08CC0F6FF8DC07E
:1023FC00F7FF8EC0F8FF0900F5CF01F00150300A4D
:10240C00BDE001D09ED799A301D0999199A701D095
:10241C0099958CC0F6FF8DC0F7FF8EC0F8FF0900B0
:10242C00F5CF00F0000E016E00C0ADF06BEC07F0C4
:10243C00005236E0976B986B97C000F098C001F093
:10244C000A0E046E000E056E43EC07F08CC0F6FF0E
:10245C008DC0F7FF8EC0F8FF0900F5CF02F00250D7
:10246C000024976F000E0120986F300E975F000EBE
:10247C00985B010E8C27000E8D238E238CC0F6FFEB
:10248C008DC0F7FF8EC0F8FF0900F5CF00F0000EED
:10249C00016E00C0ADF06BEC07F00052CDE133D013
:1024AC008CC0F6FF8DC0F7FF8EC0F8FF0900F5CF8A
:1024BC0001F001502A0A27E18FC0E9FF90C0EAFF22
:1024CC00EECF00F0EECF01F000C0E9FF01C0EAFF53
:1024DC00EECF97F0EECF98F08FC0E9FF90C0EAFFF7
:1024EC00020EEE24006E000EEE20016E8FC0E1FF96
:1024FC0090C0E2FF00C0E6FF01C0E6FF010E8C2792
:10250C00000E8D238E238CC0F6FF8DC0F7FF8EC07E
:10251C00F8FF0900F5CF01F001502E0A70E1010E11
:10252C008C27000E8D238E238CC0F6FF8DC0F7FFF9
:10253C008EC0F8FF0900F5CF01F001502A0A28E1FE
:10254C008FC0E9FF90C0EAFFEECF00F0EECF01F0B4
:10255C0000C0E9FF01C0EAFFEECF94F0EECF95F09A
:10256C008FC0E9FF90C0EAFF020EEE24006E000E51
:10257C00EE20016E8FC0E1FF90C0E2FF00C0E6FFCD
:10258C0001C0E6FF010E8C27000E8D238E2336D062
:10259C00946B956B8CC0F6FF8DC0F7FF8EC0F8FF67
:1025AC000900F5CF00F0000E016E00C0ADF06BEC31
:1025BC0007F0005223E094C000F095C001F00A0E21
:1025CC00046E000E056E43EC07F08CC0F6FF8DC058
:1025DC00F7FF8EC0F8FF0900F5CF02F0025000247F
:1025EC00946F000E0120956F300E945F000E955B7A
:1025FC00010E8C27000E8D238E23CCD703D0946B29
:10260C00956B9A898CC000F08DC001F08EC002F0E1
:10261C00010E8C27000E8D238E2300C0F6FF01C007
:10262C00F7FF02C0F8FF0900F5CF96F0F9D0A5C06E
:10263C0000F0A6C001F08AEF21F09989E3D79A85C2
:10264C002ED1998B9A812BD19A8329D1998D27D10F
:10265C0026D1998B998F23D18FC0E9FF90C0EAFFC7
:10266C00EECF00F0EECF01F000C0E9FF01C0EAFFB1
:10267C00EECFA1F0EECFA2F08FC0E9FF90C0EAFF41
:10268C00020EEE24006E000EEE20016E8FC0E1FFF4
:10269C0090C0E2FF00C0E6FF01C0E6FF000EA219E9
:1026AC0002E1000EA11904E13B0EA16F000EA26F16
:1026BC00A36BA46BA351A125E96EA451A221EA6ED0
:1026CC00EE520BE0010EA325006E000EA421016E4C
:1026DC0000C0A3F001C0A4F0EDD7945195110AE00D
:1026EC00A451955D02E1A351945D04E294C0A3F062
:1026FC0095C0A4F09851A45D02E19751A35D05E249
:10270C00A351975FA451985B02D0976B986B99B7C4
:10271C0016D097C000F098C001F0010E975F000E24
:10272C00985B005001100BE08AC0E1FF8BC0E2FF08
:10273C00200EE66E8A4B8B2BA54BA62BEAD7A3C09B
:10274C0002F0A4C003F0010EA35D006E000EA459AC
:10275C00016E00C0A3F001C0A4F00250031019E0F8
:10276C00A1C0E9FFA2C0EAFF8AC0E1FF8BC0E2FF73
:10277C00EECFE6FF8A4B8B2B010EA125006E000ECF
:10278C00A221016E00C0A1F001C0A2F0A54BA62BA6
:10279C00D6D799A716D097C000F098C001F0010EBB
:1027AC00975F000E985B005001100BE08AC0E1FFB0
:1027BC008BC0E2FF200EE66E8A4B8B2BA54BA62B13
:1027CC00EAD793D58FC0E9FF90C0EAFFEECF00F0B7
:1027DC00EECF01F000C0E9FF01C0EAFFEECF96F0AA
:1027EC008FC0E9FF90C0EAFF020EEE24006E000ECF
:1027FC00EE20016E8FC0E1FF90C0E2FF00C0E6FF4B
:10280C0001C0E6FF960EA16F000EA26F010EA36F22
:10281C00000EA46F62D7C00E9913000E9A133FD00E
:10282C009651000AD8B403D796516C0AD8B405D780
:10283C0096514C0AD8B401D79651660AD8B4FFD633
:10284C009651450AD8B4FDD69651650AD8B4FAD635
:10285C009651670AD8B4F8D696516F0AD8B4F6D602
:10286C009651640AD8B4F4D69651690AD8B4F0D605
:10287C009651700AD8B4EDD69651580AD8B4E9D608
:10288C009651780AD8B4E6D69651730AD8B4E4D6E1
:10289C009651630A97E09651750ABDE0B3D7000EC6
:1028AC009915006E9A51070B016E00500110D8B4A7
:1028BC002DEF1DF09AA904D0060E946F000E956FA3
:1028CC008FC0E9FF90C0EAFFEECF00F0EECF01F031
:1028DC0000C0E9FF01C0EAFFEECF9BF0EECF9CF009
:1028EC00EECF9DF0EECF9EF08FC0E9FF90C0EAFFD7
:1028FC00040EEE24006E000EEE20016E8FC0E1FF80
:10290C0090C0E2FF00C0E6FF01C0E6FF046A056A62
:10291C00066A076A9BC000F09CC001F09DC002F0E3
:10292C009EC003F015EC06F0010ED8B0000E006E40
:10293C00005205E09D7F030E9913000E9A139F6BB6
:10294C00A06B9BC000F09CC001F09DC002F09EC02B
:10295C0003F0046A056A066A076A57EC08F0000E71
:10296C00D8A4010E006E0052D8B48AD09EC000F0DC
:10297C00016A026A036AFF0E0016000E01167E0E33
:10298C00005E000E015A00C09FF001C0A0F0010EC5
:10299C00005E000E015A00C09FF001C0A0F0030EB3
:1029AC00046E000E056E43EC07F000C09FF001C0F2
:1029BC00A0F00A0E046E000E056E77EC07F000C056
:1029CC009FF001C0A0F0800E0118026E800E025C18
:1029DC0002E1000E005C05E2010E00019F5F000E9B
:1029EC00A05B00019F510008AD6F91EC0AF09BC0F9
:1029FC0004F09CC005F09DC006F09EC007F02AECC8
:102A0C0004F000C0A1F001C0A2F002C0A3F003C00A
:102A1C00A4F0000E046E000E056E000E066E7F0E06
:102A2C00076EA1C000F0A2C001F0A3C002F0A4C0C8
:102A3C0003F015EC06F0010ED8B0000E006E00523B
:102A4C0005E0010E9F5F000EA05B1AD0000E046E15
:102A5C00000E056E200E066E820E076EA1C000F0F1
:102A6C00A2C001F0A3C002F0A4C003F015EC06F064
:102A7C00000ED8B0010E006E005202E09F4BA02B4E
:102A8C00800E006E800EA019005C02E19F510008C0
:102A9C0003E3010E966F02D09FC096F09AB118D046
:102AAC009AA315D0800EA019006E7F0E005C02E177
:102ABC00FC0E9F5D0BE3800EA019006E800E951925
:102ACC00005C02E194519F5D01E201D001D0F1D391
:102ADC009451951106E09AA304D0010E945F000E58
:102AEC00955B000E006E9551005C02E19451080854
:102AFC0003E2080E966F02D094C096F09BC000F0D3
:102B0C009CC001F09DC002F09EC003F0046A056AEF
:102B1C00066A076A57EC08F0000ED8A4010E006E86
:102B2C000052D8B44BD19FC0ADF091EC0AF000C06C
:102B3C0004F001C005F002C006F003C007F09BC012
:102B4C0000F09CC001F09DC002F09EC003F0E5ECCB
:102B5C000EF000C09BF001C09CF002C09DF003C0C1
:102B6C009EF0000196510008AD6F91EC0AF000C088
:102B7C0004F001C005F002C006F003C007F09BC0D2
:102B8C0000F09CC001F09DC002F09EC003F0E5EC8B
:102B9C000EF000C0A7F001C0A8F002C0A9F003C05D
:102BAC00AAF0A7C09BF0A8C09CF0A9C09DF0AAC039
:102BBC009EF0A7C000F0A8C001F0A9C002F0AAC006
:102BCC0003F0EEEC09F0A3EC0FF000C004F001C030
:102BDC0005F002C006F003C007F0A7C000F0A8C0C3
:102BEC0001F0A9C002F0AAC003F011EC06F0000E2F
:102BFC00046E000E056E000E066E7E0E076E15EC52
:102C0C0006F0000ED8B0010E006E00521AE09BC008
:102C1C0000F09CC001F09DC002F09EC003F0000EBD
:102C2C00046E000E056E000E066E7E0E076E0FEC27
:102C3C0002F000C09BF001C09CF002C09DF003C0EC
:102C4C009EF09BC000F09CC001F09DC002F09EC0A5
:102C5C0003F0EEEC09F000019651010F096E0A6ABF
:102C6C00000E0A2209C004F00AC005F0000E0ABECC
:102C7C00FF0E066E076E04360490053606360736D0
:102C8C00043604900536063607362A0E0424F66EF2
:102C9C004F0E0520F76E000E0620F86E0900F5CFDA
:102CAC0005F00900F5CF06F00900F5CF07F0090093
:102CBC00F5CF08F00850035C08E10750025C05E111
:102CCC000650015C02E10550005C1EE300019BC054
:102CDC0000F09CC001F09DC002F09EC003F0CD0E30
:102CEC00046ECC0E056E4C0E066E7B0E076E2AEC37
:102CFC0004F000C09BF001C09CF002C09DF003C02A
:102D0C009EF09F4BA02B5AD09BC000F09CC001F0B2
:102D1C009DC002F09EC003F0EEEC09F096C004F0EA
:102D2C00000E056E066E076E0436049005360636E8
:102D3C000736043604900536063607362A0E042468
:102D4C00F66E4F0E0520F76E000E0620F86E090089
:102D5C00F5CF05F00900F5CF06F00900F5CF07F027
:102D6C000900F5CF08F00850035C08E10750025C3D
:102D7C0005E10650015C02E10550005C1FE2000118
:102D8C009BC000F09CC001F09DC002F09EC003F0FF
:102D9C00000E046E000E056E200E066E820E076E7F
:102DAC002AEC04F000C09BF001C09CF002C09DF026
:102DBC0003C09EF0010E9F5F000EA05B00019AA362
:102DCC0093D09AB791D0800E000A006E800E9519A0
:102DDC00005C02E194510A0804E20A0E946F000EA2
:102DEC00956F9BC000F09CC001F09DC002F09EC08E
:102DFC0003F0EEEC09F000C0A1F001C0A2F002C09B
:102E0C00A3F003C0A4F0A151A211A311A41142E09C
:102E1C000A0E046E000E056E066E076EA1C000F061
:102E2C00A2C001F0A3C002F0A4C003F06FEC0DF03F
:102E3C0008C000F009C001F00AC002F00BC003F09A
:102E4C00000E046E031808E10450021805E104504A
:102E5C00011802E10050000A1DE1010E945F000E02
:102E6C00955B0A0E046E000E056E066E076EA1C011
:102E7C0000F0A2C001F0A3C002F0A4C003F06FECFC
:102E8C000DF000C0A1F001C0A2F002C0A3F003C07D
:102E9C00A4F0B9D7800E9519006E800E005C02E18B
:102EAC009651945D21E29451965DAD6F91EC0AF0D0
:102EBC0000C004F001C005F002C006F003C007F02A
:102ECC009BC000F09CC001F09DC002F09EC003F0BE
:102EDC00E5EC0EF000C09BF001C09CF002C09DF030
:102EEC0003C09EF094C096F0050E00019425006E70
:102EFC00000E9521016E0050975F0150985B945124
:102F0C00951103E19AB701D004D0010E975F000E22
:102F1C00985B030E9915006E9AC001F0000E011615
:102F2C000050011004E0010E975F000E985B99A50C
:102F3C0039D099A312D099A103D02D0E7C6E02D05A
:102F4C002B0E7C6E8AC0E1FF8BC0E2FF7CC0E6FFDB
:102F5C008A4B8B2BA54BA62B0CD099A10AD08AC0DF
:102F6C00E1FF8BC0E2FF200EE66E8A4B8B2BA54B4C
:102F7C00A62B800E006E800E9819005C02E1975112
:102F8C0000080FE28AC0E1FF8BC0E2FF300EE66E54
:102F9C008A4B8B2BA54BA62B010E975F000E985BD3
:102FAC00E8D73AD099B718D0800E006E800E9819D9
:102FBC00005C02E1975100080FE28AC0E1FF8BC070
:102FCC00E2FF200EE66E8A4B8B2BA54BA62B010E37
:102FDC00975F000E985BE8D799A312D099A103D004
:102FEC002D0E7D6E02D02B0E7D6E8AC0E1FF8BC044
:102FFC00E2FF7DC0E6FF8A4B8B2BA54BA62B0CD09A
:10300C0099A10AD08AC0E1FF8BC0E2FF200EE66EC8
:10301C008A4B8B2BA54BA62B9BC000F09CC001F0C0
:10302C009DC002F09EC003F0EEEC09F000C0A1F0D0
:10303C0001C0A2F002C0A3F003C0A4F096C000F03F
:10304C00000E016E026E036E0036009001360236E1
:10305C000336003600900136023603362A0E002461
:10306C00F66E4F0E0120F76E000E0220F86E09006E
:10307C00F5CF04F00900F5CF05F00900F5CF06F007
:10308C000900F5CF07F0A1C000F0A2C001F0A3C069
:10309C0002F0A4C003F06FEC0DF0300E00268AC0D5
:1030AC00E1FF8BC0E2FF00C0E6FF8A4B8B2BA54BE8
:1030BC00A62B9451951103E19AB701D06FD08AC019
:1030CC00E1FF8BC0E2FF2E0EE66E8A4B8B2BA54BDD
:1030DC00A62B9651945F000E955B96534DE0960788
:1030EC0096C000F0000E016E026E036E003600906A
:1030FC0001360236033600360090013602360336AE
:10310C002A0E0024F66E4F0E0120F76E000E0220E0
:10311C00F86E0900F5CF04F00900F5CF05F00900B1
:10312C00F5CF06F00900F5CF07F0A1C000F0A2C062
:10313C0001F0A3C002F0A4C003F06FEC0DF00A0E76
:10314C00046E000E056E066E076E6FEC0DF008C077
:10315C0000F009C001F00AC002F00BC003F0300E01
:10316C0000268AC0E1FF8BC0E2FF00C0E6FF8A4B5D
:10317C008B2BA54BA62BB1D7945195110FE08AC080
:10318C00E1FF8BC0E2FF300EE66E8A4B8B2BA54B1A
:10319C00A62B010E945F000E955BEED799AB0BD06E
:1031AC008AC0E1FF8BC0E2FF450EE66E8A4B8B2B8B
:1031BC00A54BA62B0AD08AC0E1FF8BC0E2FF650E9F
:1031CC00E66E8A4B8B2BA54BA62B800EA019006E9E
:1031DC00800E005C02E1000E9F5D11E29F51000821
:1031EC009F6FA051000EA0578AC0E1FF8BC0E2FF79
:1031FC002D0EE66E8A4B8B2BA54BA62B0AD08AC0C4
:10320C00E1FF8BC0E2FF2B0EE66E8A4B8B2BA54B9E
:10321C00A62B0A0E046E000E056E9FC000F0A0C017
:10322C0001F077EC07F0300E00268AC0E1FF8BC06E
:10323C00E2FF00C0E6FF00018A4B8B2BA54BA62BAF
:10324C000A0E046E000E056E9FC000F0A0C001F0C7
:10325C0077EC07F008C000F009C001F0300E002632
:10326C008AC0E1FF8BC0E2FF00C0E6FF00018A4B81
:10327C008B2BA54BA62B99A71AD0800E006E800E17
:10328C009819005C02E19751000811E28AC0E1FF35
:10329C008BC0E2FF200EE66E8A4B8B2BA54BA62B28
:1032AC00010E975F000E985B97519811EFE17BEF41
:1032BC0011F09AA3F3D0800EA019006E800E005C62
:1032CC0002E1000E9F5D0AE2010E9F5D006E000E92
:1032DC00A059016E0050945F0150955B9BC000F0AB
:1032EC009CC001F09DC002F09EC003F0EEEC09F012
:1032FC0000C0A1F001C0A2F002C0A3F003C0A4F072
:10330C00010E966F96510A0A34E096C000F0000E3A
:10331C00016E026E036E00360090013602360336E3
:10332C00003600900136023603362A0E0024F66E63
:10333C004F0E0120F76E000E0220F86E0900F5CF3B
:10334C0001F00900F5CF02F00900F5CF03F00900F8
:10335C00F5CF04F00450A45D08E10350A35D05E132
:10336C000250A25D02E10150A15D01E202D0962B58
:10337C00C9D79651945DAB6F000E9559AC6FABC02D
:10338C0094F0ACC095F0A1C000F0A2C001F0A3C0B5
:10339C0002F0A4C003F0A3EC0FF000C004F001C0D5
:1033AC0005F002C006F003C007F09BC000F09CC003
:1033BC0001F09DC002F09EC003F011EC06F000C0BD
:1033CC00A7F001C0A8F002C0A9F003C0AAF0ABC0DE
:1033DC00ADF091EC0AF0A7C004F0A8C005F0A9C0AC
:1033EC0006F0AAC007F02AEC04F0000E046E000EE2
:1033FC00056E000E066E7E0E076E0FEC02F0EEEC04
:10340C0009F000C0A1F001C0A2F002C0A3F003C0FB
:10341C00A4F09451951142E00A0E046E000E056E54
:10342C00066E076EA1C000F0A2C001F0A3C002F0AE
:10343C00A4C003F06FEC0DF008C000F009C001F05F
:10344C000AC002F00BC003F0000E046E031808E172
:10345C000450021805E10450011802E10050000A62
:10346C001DE10A0E046E000E056E066E076EA1C0FD
:10347C0000F0A2C001F0A3C002F0A4C003F06FECF6
:10348C000DF000C0A1F001C0A2F002C0A3F003C077
:10349C00A4F0010E945F000E955BBBD7800E006EFE
:1034AC00800E9519005C02E194510C0816E394C04F
:1034BC00ADF06EEC08F09BC004F09CC005F09DC014
:1034CC0006F09EC007F00FEC02F000C09BF001C0AC
:1034DC009CF002C09DF003C09EF09BC000F09CC00D
:1034EC0001F09DC002F09EC003F0046A056A066AF2
:1034FC00076A57EC08F0000ED8A4010E006E0052BB
:10350C00D8B477D09BC000F09CC001F09DC002F0F5
:10351C009EC003F0EEEC09F0000E046E031808E1F7
:10352C000450021805E10450011802E10050000A91
:10353C0060E1800E006E800EA019005C02E19F51CC
:10354C00010857E29FC0ADF091EC0AF000C004F006
:10355C0001C005F002C006F003C007F09BC000F0EC
:10356C009CC001F09DC002F09EC003F0E5EC0EF093
:10357C005F0E046E700E056E090E066E810E076EE0
:10358C0015EC06F0010ED8B0000E006E005206E0ED
:10359C00090E00019F5F000EA05B05D00001080E14
:1035AC009F5F000EA05B9FC0ADF091EC0AF000C0D5
:1035BC0004F001C005F002C006F003C007F09BC088
:1035CC0000F09CC001F09DC002F09EC003F0E5EC41
:1035DC000EF0EEEC09F000C0A1F001C0A2F002C0A8
:1035EC00A3F003C0A4F000019B6B9C6B9D6B9E6BC6
:1035FC0038D09BC000F09CC001F09DC002F09EC072
:10360C0003F0EEEC09F000C0A1F001C0A2F002C082
:10361C00A3F003C0A4F0A1C000F0A2C001F0A3C0AD
:10362C0002F0A4C003F0A3EC0FF000C004F001C042
:10363C0005F002C006F003C007F09BC000F09CC070
:10364C0001F09DC002F09EC003F011EC06F000C02A
:10365C009BF001C09CF002C09DF003C09EF09F6BDC
:10366C00A06B010E966F96510A0A34E096C000F0DA
:10367C00000E016E026E036E0036009001360236AB
:10368C000336003600900136023603362A0E00242B
:10369C00F66E4F0E0120F76E000E0220F86E090038
:1036AC00F5CF01F00900F5CF02F00900F5CF03F0DA
:1036BC000900F5CF04F00450A45D08E10350A35DAC
:1036CC0005E10250A25D02E10150A15D01E202D0D0
:1036DC00962BC9D796519425006E000E9521016E3C
:1036EC009F510026A05101220050975F0150985B1A
:1036FC009AB704D09451951101E104D0010E975F53
:10370C00000E985B030E9915006E9AC001F0000E26
:10371C0001160050011004E0010E975F000E985B3B
:10372C0099A539D099A312D099A103D02D0E7E6EF4
:10373C0002D02B0E7E6E8AC0E1FF8BC0E2FF7EC0F2
:10374C00E6FF8A4B8B2BA54BA62B0CD099A10AD04C
:10375C008AC0E1FF8BC0E2FF200EE66E8A4B8B2BFA
:10376C00A54BA62B800E006E800E9819005C02E112
:10377C00975100080FE28AC0E1FF8BC0E2FF300EC8
:10378C00E66E8A4B8B2BA54BA62B010E975F000E7A
:10379C00985BE8D73AD099B718D0800E006E800E9F
:1037AC009819005C02E1975100080FE28AC0E1FF12
:1037BC008BC0E2FF200EE66E8A4B8B2BA54BA62B03
:1037CC00010E975F000E985BE8D799A312D099A1D0
:1037DC0003D02D0E7F6E02D02B0E7F6E8AC0E1FFC0
:1037EC008BC0E2FF7FC0E6FF8A4B8B2BA54BA62B31
:1037FC000CD099A10AD08AC0E1FF8BC0E2FF200E49
:10380C00E66E8A4B8B2BA54BA62B96C000F0960729
:10381C0000524CE096C000F0000E016E026E036E7A
:10382C000036009001360236033600360090013621
:10383C00023603362A0E0024F66E4F0E0120F76E68
:10384C00000E0220F86E0900F5CF04F00900F5CF48
:10385C0005F00900F5CF06F00900F5CF07F0A1C07F
:10386C0000F0A2C001F0A3C002F0A4C003F06FEC02
:10387C000DF00A0E046E000E056E066E076E6FECF0
:10388C000DF008C000F009C001F00AC002F00BC036
:10389C0003F0300E00268AC0E1FF8BC0E2FF00C0AF
:1038AC00E6FF8A4B8B2BA54BA62BAFD7800E006E59
:1038BC00800EA019005C02E19F5100080FE28AC043
:1038CC00E1FF8BC0E2FF300EE66E8A4B8B2BA54BD3
:1038DC00A62B010E9F5F000EA05BE8D7800E000A9E
:1038EC00006E800E9519005C02E19451080803E209
:1038FC00080E966F02D094C096F09651945F000E0D
:10390C00955B965303E19AB701D00AD08AC0E1FFC8
:10391C008BC0E2FF2E0EE66E8A4B8B2BA54BA62B93
:10392C0096C0ADF091EC0AF09BC004F09CC005F081
:10393C009DC006F09EC007F02AEC04F078EC05F070
:10394C0000C0A1F001C0A2F002C0A3F003C0A4F01B
:10395C0096534DE0960796C000F0000E016E026E75
:10396C00036E0036009001360236033600360090A6
:10397C000136023603362A0E0024F66E4F0E012055
:10398C00F76E000E0220F86E0900F5CF04F0090066
:10399C00F5CF05F00900F5CF06F00900F5CF07F0DB
:1039AC00A1C000F0A2C001F0A3C002F0A4C003F0BB
:1039BC006FEC0DF00A0E046E000E056E066E076EAF
:1039CC006FEC0DF008C000F009C001F00AC002F065
:1039DC000BC003F0300E00268AC0E1FF8BC0E2FF63
:1039EC0000C0E6FF8A4B8B2BA54BA62BB1D794516D
:1039FC0095110FE08AC0E1FF8BC0E2FF300EE66E3E
:103A0C008A4B8B2BA54BA62B010E945F000E955B5E
:103A1C00EED799A71AD0800E006E800E9819005C14
:103A2C0002E19751000811E28AC0E1FF8BC0E2FF6E
:103A3C00200EE66E8A4B8B2BA54BA62B010E975FA7
:103A4C00000E985B97519811EFE17BEF11F0C00ECF
:103A5C009915016E9AC002F0000E0216000E0218A3
:103A6C0002E1000E0118D8A480D099A927D08FC0EC
:103A7C00E9FF90C0EAFFEECF00F0EECF01F000C0FE
:103A8C00E9FF01C0EAFFEECFA1F0EECFA2F0EECF3E
:103A9C00A3F0EECFA4F08FC0E9FF90C0EAFF040EB4
:103AAC00EE24006E000EEE20016E8FC0E1FF90C080
:103ABC00E2FF00C0E6FF01C0E6FF2FD08FC0E9FF98
:103ACC0090C0EAFFEECF00F0EECF01F000C0E9FFAE
:103ADC0001C0EAFFEECF00F0EECF01F0000E01BE08
:103AEC00FF0E026E036E00C0A1F001C0A2F002C076
:103AFC00A3F003C0A4F08FC0E9FF90C0EAFF020E50
:103B0C00EE24006E000EEE20016E8FC0E1FF90C01F
:103B1C00E2FF00C0E6FF01C0E6FF800EA419006EB4
:103B2C00800E005C08E1000EA35D05E1000EA25DB5
:103B3C0002E1000EA15D18E2030E9913000E9A1318
:103B4C00006A016A026A036AA151005EA251015A1D
:103B5C00A351025AA451035A00C0A1F001C0A2F013
:103B6C0002C0A3F003C0A4F04ED099A927D08FC0F7
:103B7C00E9FF90C0EAFFEECF00F0EECF01F000C0FD
:103B8C00E9FF01C0EAFFEECFA1F0EECFA2F0EECF3D
:103B9C00A3F0EECFA4F08FC0E9FF90C0EAFF040EB3
:103BAC00EE24006E000EEE20016E8FC0E1FF90C07F
:103BBC00E2FF00C0E6FF01C0E6FF25D08FC0E9FFA1
:103BCC0090C0EAFFEECF00F0EECF01F000C0E9FFAD
:103BDC0001C0EAFFEECFA1F0EECFA2F0000EA36F72
:103BEC00A46F8FC0E9FF90C0EAFF020EEE24006EB6
:103BFC00000EEE20016E8FC0E1FF90C0E2FF00C00E
:103C0C00E6FF01C0E6FF000E951902E1000E9419C3
:103C1C000FE1000E006EA41908E10050A31905E194
:103C2C000050A21902E1A151000A02E1944B952B1C
:103C3C00C00E9915006E00C005F0AED0010E966F47
:103C4C0096510A0A34E096C000F0000E016E026E26
:103C5C00036E0036009001360236033600360090B3
:103C6C000136023603362A0E0024F66E4F0E012062
:103C7C00F76E000E0220F86E0900F5CF01F0090076
:103C8C00F5CF02F00900F5CF03F00900F5CF04F0F1
:103C9C000450A45D08E10350A35D05E10250A25D50
:103CAC0002E10150A15D01E202D0962BC9D782D06E
:103CBC00010E966F9651080A34E096C000F0000E83
:103CCC00016E026E036E003600900136023603362A
:103CDC0000360090013602360336520E0024F66E82
:103CEC004F0E0120F76E000E0220F86E0900F5CF82
:103CFC0001F00900F5CF02F00900F5CF03F009003F
:103D0C00F5CF04F00450A45D08E10350A35D05E178
:103D1C000250A25D02E10150A15D01E202D0962B9E
:103D2C00C9D748D0010E966F96510C0A34E096C054
:103D3C0000F0000E016E026E036E0036009001362C
:103D4C000236033600360090013602360336FA0E80
:103D5C000024F66E4E0E0120F76E000E0220F86E57
:103D6C000900F5CF01F00900F5CF02F00900F5CFFD
:103D7C0003F00900F5CF04F00450A45D08E10350F2
:103D8C00A35D05E10250A25D02E10150A15D01E2DB
:103D9C0002D0962BC9D70ED00550000AD8B44ED7F6
:103DAC000550C00AD8B44AD70550800A81E00550A6
:103DBC00400AB8E0800E006E800E9519005C02E19E
:103DCC009451965D03E294C096F00DD0800E951937
:103DDC00006E800E005C02E19651945D04E296C088
:103DEC0094F0000E956F975198110EE0030E9915F3
:103DFC00006E9AC001F0000E01160050011004E094
:103E0C00010E975F000E985B800E9519006E800E68
:103E1C009819005C02E19751945D05E29451975F0B
:103E2C009551985B02D0976B986BC40E9915016EE7
:103E3C009A51080B026E0250080A02E1400E01185A
:103E4C0008E19751981104E0010E975F000E985B02
:103E5C001CD0C00E9915016E9A51080B026E0250BF
:103E6C00080A02E1800E011810E1800E006E800E2F
:103E7C009819005C02E19751020805E2020E975F67
:103E8C00000E985B02D0976B986B99A55DD099A3A7
:103E9C0012D099A103D02D0E806F02D02B0E806F03
:103EAC008AC0E1FF8BC0E2FF80C0E6FF8A4B8B2B00
:103EBC00A54BA62B34D099A10BD08AC0E1FF8BC0A7
:103ECC00E2FF200EE66E8A4B8B2BA54BA62B27D040
:103EDC00C00E9915016E9A51080B026E0250080A19
:103EEC0002E1800E01181BE18AC0E1FF8BC0E2FFEA
:103EFC00300EE66E8A4B8B2BA54BA62B99AB03D0C1
:103F0C00580E916F02D0780E916F8AC0E1FF8BC072
:103F1C00E2FF91C0E6FF8A4B8B2BA54BA62B97514A
:103F2C00981111E08AC0E1FF8BC0E2FF300EE66E03
:103F3C008A4B8B2BA54BA62B010E975F000E985B23
:103F4C0097519811EFE174D09751981113E099B7EC
:103F5C0011D08AC0E1FF8BC0E2FF200EE66E8A4BC7
:103F6C008B2BA54BA62B010E975F000E985B9751E0
:103F7C009811EFE199A312D099A103D02D0E926F55
:103F8C0002D02B0E926F8AC0E1FF8BC0E2FF92C071
:103F9C00E6FF8A4B8B2BA54BA62B0CD099A10AD0F4
:103FAC008AC0E1FF8BC0E2FF200EE66E8A4B8B2BA2
:103FBC00A54BA62BC00E9915016E9A51080B026EDB
:103FCC000250080A02E1400E01180BE18AC0E1FF21
:103FDC008BC0E2FF300EE66E8A4B8B2BA54BA62BCB
:103FEC0027D0C00E9915016E9A51080B026E025023
:103FFC00080A02E1800E01181BE18AC0E1FF8BC0A8
:10400C00E2FF300EE66E8A4B8B2BA54BA62B99ABA1
:10401C0003D0580E936F02D0780E936F8AC0E1FFD5
:10402C008BC0E2FF93C0E6FF8A4B8B2BA54BA62BD4
:10403C00800E006E800E9519005C02E19451965D25
:10404C000BE28AC0E1FF8BC0E2FF300EE66E8A4BBA
:10405C008B2BA54BA62BECD794C000F095C001F090
:10406C00010E945F000E955B00500110D8B42AD15C
:10407C00C00E9915006E00C0A7F00AD194C000F0D4
:10408C0095C001F0000E95BFFF0E026E036E003658
:10409C0000900136023603360036009001360236A7
:1040AC0003362A0E0024F66E4F0E0120F76E000E1A
:1040BC000220F86E0900F5CF04F00900F5CF05F0E9
:1040CC000900F5CF06F00900F5CF07F0A1C000F00C
:1040DC00A2C001F0A3C002F0A4C003F06FEC0DF07D
:1040EC000A0E046E000E056E066E076E6FEC0DF078
:1040FC0008C000F009C001F00AC002F00BC003F0C8
:10410C00300E0024966FD3D099AB45D094C000F0FC
:10411C0095C001F0000E95BFFF0E026E036E0036C7
:10412C000090013602360336003600900136023616
:10413C000336520E0024F66E4F0E0120F76E000E61
:10414C000220F86E0900F5CF04F00900F5CF05F058
:10415C000900F5CF06F00900F5CF07F0A1C000F07B
:10416C00A2C001F0A3C002F0A4C003F06FEC0DF0EC
:10417C000F0E0016000E011602160316860E0024F2
:10418C00F66E4F0E0120F76E000E0220F86E09003D
:10419C00F5CF96F044D094C000F095C001F0000E1D
:1041AC0095BFFF0E026E036E00360090013602368C
:1041BC00033600360090013602360336520E0024C8
:1041CC00F66E4F0E0120F76E000E0220F86E0900FD
:1041DC00F5CF04F00900F5CF05F00900F5CF06F096
:1041EC000900F5CF07F0A1C000F0A2C001F0A3C0F8
:1041FC0002F0A4C003F06FEC0DF00F0E0016000ED1
:10420C00011602160316970E0024F66E4F0E0120AF
:10421C00F76E000E0220F86E0900F5CF96F047D02D
:10422C0094C000F095C001F0000E95BFFF0E026E19
:10423C00036E0036009001360236033600360090CD
:10424C00013602360336FA0E0024F66E4E0E0120AD
:10425C00F76E000E0220F86E0900F5CF04F009008D
:10426C00F5CF05F00900F5CF06F00900F5CF07F002
:10427C00A1C000F0A2C001F0A3C002F0A4C003F0E2
:10428C006FEC0DF0070E0014966F300E96270FD0C2
:10429C00A751000AD8B4F2D6A751C00AD8B4EED6AA
:1042AC00A751800AD8B430D7A751400AB9E08AC0C8
:1042BC00E1FF8BC0E2FF96C0E6FF8A4B8B2BA54B30
:1042CC00A62BCAD699A71AD0800E006E800E98190C
:1042DC00005C02E19751000811E28AC0E1FF8BC03B
:1042EC00E2FF200EE66E8A4B8B2BA54BA62B010E04
:1042FC00975F000E985B97519811EFE17BEF11F0EF
:0A430C00A5C000F0A6C001F01200E9
:10431600560E006E0E0E016E490E026E810E036E73
:1043260078C004F079C005F07AC006F07BC007F0CB
:104336002AEC04F036C004F037C005F038C006F0A9
:1043460039C007F02AEC04F000C07CF001C07DF013
:1043560002C07EF003C07FF024EC10F0000E046E65
:10436600C00E056E7F0E066E880E076E2AEC04F0F0
:1043760000C05FF001C060F002C061F003C062F0EF
:1043860000C004F001C005F002C006F003C007F04B
:10439600006A016A026A036A15EC06F0010ED8B0DB
:1043A600000E006E005203E08282829A02D0829250
:1043B600828A5FC000F060C001F061C002F062C096
:1043C60003F0EEEC09F0010E0014046E04B002D006
:1043D600BD9801D0BD88020E0014046E04B002D050
:1043E600BD9A01D0BD8A00C004F001C005F002C02C
:1043F60006F003C007F00732063205320432079E84
:104406000732063205320432079E04C0BEFF120090
:10441600860E7A6E000E7B6E81C08AF082C08BF0AB
:1044260083C08CF084C08DF085C08EF07A0E0001BA
:104436008F6F000E906F76EC11F000C078F001C01F
:1044460079F000508125E16E01508221E26EE66A24
:0A44560078C000F079C001F01200F8
:10446000939C939E939A939893969394819C819E08
:10447000819481968198819A1FEC04F01FEC04F0DE
:104480001FEC04F08188818A818C09EC02F0819C08
:104490001FEC04F0818C09EC02F0819C1FEC04F00D
:1044A000818C09EC02F0819C1FEC04F0819A818CD4
:1044B00009EC02F0819C1FEC04F0818C09EC02F005
:1044C000819C81988184818C09EC02F0819C1FEC95
:1044D00004F08194818A818C09EC02F0819C819A9C
:1044E000818C09EC02F0819C1FEC04F0818C09ECBA
:1044F00002F0819C818A818C09EC02F0819C1FEC86
:1045000004F0819A818C09EC02F0819C818481867F
:104510008188818A818C09EC02F0819C1FEC04F077
:0445200063801200A2
:104524000900F5CFE6FF0006FBE10106F9E1120000
:10453400400E0001BA6F39EC05F0786A785007082C
:1045440012E3FF0E7824F66E4F0EF76E000EF7227C
:10455400000EF86E000EF8220900F5CFADF08AECDB
:104564000AF0782AEBD7480EBA6F39EC05F0786A6E
:104574007850070812E3F70E7824F66E4F0EF76EA4
:10458400000EF722000EF86E000EF8220900F5CF97
:10459400ADF08AEC0AF0782AEBD7500EBA6F39ECFA
:1045A40005F0786A7850070812E3070E7824F66E4F
:1045B400500EF76E000EF722000EF86E000EF82271
:1045C4000900F5CFADF08AEC0AF0782AEBD7580E43
:1045D400BA6F39EC05F0786A7850070812E3170EC1
:1045E4007824F66E500EF76E000EF722000EF86E69
:1045F400000EF8220900F5CFADF08AEC0AF0782A13
:10460400EBD7600EBA6F39EC05F0786A785007087A
:1046140012E30F0E7824F66E500EF76E000EF7229A
:10462400000EF86E000EF8220900F5CFADF08AEC0A
:104634000AF0782AEBD7010E7C6E010E7D6E7E6A3D
:10464400B6EC0FF0020E7C6E010E7D6E010E7E6ED6
:10465400B6EC0FF0020E7C6E020E7D6E010E7E6EC5
:10466400B6EC0FF0010E7C6E020E7D6E010E7E6EB6
:10467400B6EC0FF0010E7C6E030E7D6E020E7E6EA4
:10468400B6EC0FF0020E7C6E030E7D6E020E7E6E93
:10469400B6EC0FF0010E7C6E040E7D6E510E7E6E34
:0A46A400000E7F6EE5EC0FF012002F
:1046AE00010E0001BA6F39EC05F0010E7C6E010EA1
:1046BE007D6E7E6AB6EC0FF0020E7C6E010E7D6E84
:1046CE00010E7E6EB6EC0FF0020E7C6E020E7D6E4B
:1046DE00010E7E6EB6EC0FF0010E7C6E020E7D6E3C
:1046EE00010E7E6EB6EC0FF0010E7C6E030E7D6E2B
:1046FE00020E7E6EB6EC0FF0020E7C6E030E7D6E19
:10470E00020E7E6EB6EC0FF0010E7C6E040E7D6E08
:10471E00230E7E6E000E7F6EE5EC0FF0020E7C6EA9
:10472E00040E7D6E040E7E6EB6EC0FF0020E7C6EE5
:10473E00050E7D6E290E7E6E000E7F6EE5EC0FF07F
:02474E00120057
:104750000F0EC16E1F0E926E94949492949A070E4F
:10476000B46E0F0EBD6E880ED56E9E0ED76E580EAF
:10477000D66E8292829AFF0ECB6E060ECA6EBE6A0B
:02478000120025
:1047820010EC28F094908B90F288F19CF28E829239
:10479200829A65DE010E0001BA6F39EC05F00C0E4B
:1047A200BA6F39EC05F05E5201E1FDD7C2DE4D0E63
:1047B2000B6E190E0C6E4F0E0D6E0D2EFED70C2EBB
:1047C200FCD70B2EFAD70000000070DF330E0B6E01
:1047D200BB0E0C6EDF0E0D6E0D2EFED70C2EFCD70F
:1047E2000B2EFAD700000000010EBA6F39EC05F06B
:1047F200AEDF010E7C6E010E7D6E420E7E6E000EED
:104802007F6EE5EC0FF0640E816F000E826FC10EB9
:10481200836F4F0E846F000E856F4DC086F04EC0C1
:1048220087F04FC088F050C089F0F4DD020E7C6E34
:10483200010E7D6E640E7E6E000E7F6EE5EC0FF053
:10484200140E0C6E790E0D6E0D2EFED70C2EFCD7AB
:1048520000000000F28A5E5202E15B6A98D75C5265
:1048620009E04DC078F04EC079F04FC07AF050C0E8
:104872007BF050DD2850000A000ED8A4010E006E15
:104882005B50001614E00E0E0001BA6F39EC05F011
:10489200C00EBA6F39EC05F05C6A5F6A606A616AE1
:1048A200626A5B6ACA6ABD6A8292829A15D028508D
:1048B200000A010ED8A4000E006E5B5000160CE038
:1048C20000010C0EBA6F39EC05F05B6A010E5C6EEA
:1048D200060ECA6E0F0EBD6E2850010A010ED8A434
:1048E200000E006E355000163EE000014DC000F093
:1048F2004EC001F04FC002F050C003F0000E046E33
:10490200000E056E000E066E7F0E076E0FEC02F0B3
:1049120000C04DF001C04EF002C04FF003C050F095
:10492200356A640E816F000E826FCA0E836F4F0E5E
:10493200846F000E856F4DC086F04EC087F04FC069
:1049420088F050C089F066DD020E7C6E010E7D6E2D
:10495200640E7E6E000E7F6EE5EC0FF0C00EBA6F35
:1049620039EC05F0A1D02850020A010ED8A4000E9D
:10497200006E3550001646E000014DC000F04EC0FA
:1049820001F04FC002F050C003F0CD0E046ECC0E09
:10499200056E4C0E066E7B0E076E0FEC02F000C029
:1049A2004DF001C04EF002C04FF003C050F0356A26
:1049B200640E816F000E826FB80E836F4F0E846F8C
:1049C200000E856F00C086F001C087F002C088F03B
:1049D20003C089F01FDD020E7C6E010E7D6E640E37
:1049E2007E6E000E7F6EE5EC0FF0C00EBA6F39ECF2
:1049F20005F0140EBA6F39EC05F0140EBA6F39ECEB
:104A020005F052D02850030A010ED8A4000E006E01
:104A12003550001649E000014DC000F04EC001F0D3
:104A22004FC002F050C003F00A0E046ED70E056E9E
:104A3200230E066E780E076E0FEC02F000C04DF0EA
:104A420001C04EF002C04FF003C050F0356A640E50
:104A5200816F000E826FE50E836F4F0E846F000E22
:104A6200856F00C086F001C087F002C088F003C0E5
:104A720089F0D0DC020E7C6E010E7D6E640E7E6EBD
:104A8200000E7F6EE5EC0FF0C00EBA6F39EC05F048
:104A9200140EBA6F39EC05F0140EBA6F39EC05F04A
:104AA200140EBA6F39EC05F02850010A010ED8A491
:104AB200000E006E3A50001676E04DC004F04EC073
:104AC20005F04FC006F050C007F0000E006E000E59
:104AD200016E000E026E7F0E036E15EC06F0010EE3
:104AE200D8B0000E006E00521AE0000E046E000EE6
:104AF200056E000E066E7F0E076E4DC000F04EC0B2
:104B020001F04FC002F050C003F011EC06F000C0FB
:104B12004DF001C04EF002C04FF003C050F0000E45
:104B2200046E000E056E000E066E7F0E076E4DC0FF
:104B320000F04EC001F04FC002F050C003F015EC7F
:104B420006F0010ED8B0000E006E005208E0000E12
:104B52004D6E000E4E6E000E4F6E7F0E506E0001B7
:104B62003A6A640E816F000E826FEE0E836F4F0EF3
:104B7200846F000E856F4DC086F04EC087F04FC027
:104B820088F050C089F046DC020E7C6E010E7D6E0C
:104B9200640E7E6E000E7F6EE5EC0FF0C00EBA6FF3
:104BA20039EC05F015D12850020A010ED8A4000EE6
:104BB200006E3A500016D8B47FD04DC004F04EC0FB
:104BC20005F04FC006F050C007F0000E006E000E58
:104BD200016E000E026E7F0E036E15EC06F0010EE2
:104BE200D8B0000E006E00521AE0CD0E046ECC0E4C
:104BF200056E4C0E066E7B0E076E4DC000F04EC069
:104C020001F04FC002F050C003F011EC06F000C0FA
:104C12004DF001C04EF002C04FF003C050F0000E44
:104C2200046E000E056E000E066E7F0E076E4DC0FE
:104C320000F04EC001F04FC002F050C003F015EC7E
:104C420006F0010ED8B0000E006E005208E0000E11
:104C52004D6E000E4E6E000E4F6E7F0E506E0001B6
:104C62003A6A640E816F000E826FD30E836F4F0E0D
:104C7200846F000E856F4DC086F04EC087F04FC026
:104C820088F050C089F00BEC22F0020E7C6E010E0F
:104C92007D6E640E7E6E000E7F6EE5EC0FF0C00E30
:104CA200BA6F39EC05F0140EBA6F39EC05F0140E38
:104CB200BA6F39EC05F08CD02850030A010ED8A443
:104CC200000E006E3A500016D8B482D04DC004F0E7
:104CD2004EC005F04FC006F050C007F0000E006E47
:104CE200000E016E000E026E7F0E036E15EC06F0D2
:104CF200010ED8B0000E006E00521AE00A0E046EC9
:104D0200D70E056E230E066E780E076E4DC000F0AC
:104D12004EC001F04FC002F050C003F011EC06F09B
:104D220000C04DF001C04EF002C04FF003C050F081
:104D3200000E046E000E056E000E066E7F0E076EEC
:104D42004DC000F04EC001F04FC002F050C003F061
:104D520015EC06F0010ED8B0000E006E005208E00D
:104D6200000E4D6E000E4E6E000E4F6E7F0E506E98
:104D720000013A6A640E816F000E826FDC0E836F4F
:104D82004F0E846F000E856F4DC086F04EC087F0C7
:104D92004FC088F050C089F00BEC22F0020E7C6EFE
:104DA200010E7D6E640E7E6E000E7F6EE5EC0FF0DE
:104DB200C00EBA6F39EC05F0140EBA6F39EC05F07B
:104DC200140EBA6F39EC05F0140EBA6F39EC05F017
:104DD2002850000A000ED8A4010E006E27500016BB
:104DE20017E0030E285C13E22850010A0AE10001D1
:104DF200140EBA6F39EC05F0140EBA6F39EC05F0E7
:104E020005D00001140EBA6F39EC05F0282A276A82
:104E12002850000A000ED8A4010E006E5D50001644
:104E220017E02850010813E22850020A0AE10001A3
:104E3200100EBA6F39EC05F0100EBA6F39EC05F0AE
:104E420005D00001100EBA6F39EC05F028065D6A34
:044E520002D5FFD7AF
:1050200010EE23F03C0E006E010E016E560EF66E71
:0E5030004E0EF76E000EF86E92EC22F012009B
:044E5600544343007E
:014E5A000057
:014E5B000056
:0C4E5C006C7661726F2050657265730007
:014E68000049
:044E69000000000045
:014E6D000044
:074E6E00286E756C6C290031
:0B4E75004672657175656E636961002F
:044E80000000007FAF
:0A4E8400414D202D20434D4449000C
:014E8E000023
:014E8F000121
:014E90000021
:014E91000020
:104E92000000007FCDCC4C7B0AD723786F120375BC
:104EA20017B75171ACC5276EBD37066B95BF5667F4
:104EB20077CC2B645F700961FFE65B5D08E53C3CE3
:044EC2006042221B0D
:104EC6000000007F000020820000488500007A88EC
:104ED60000401C8C0050438F0024749280961896D4
:104EE60020BC3E99286B6E9CF90215A0EC782DC16A
:044EF600CAF249E2D1
:104EFA00010000000800000040000000000200005D
:104F0A0000100000008000000000040000002000E3
:104F1A00000000010000000800000040000000003E
:104F2A00010000000A00000064000000E80300001D
:104F3A0010270000A086010040420F0080969800CA
:084F4A0000E1F50500CA9A3BE5
:104F5200010000001000000000010000001000002D
:104F6200000001000000100000000001000000101D
:104F7200ECF34A903595958F17C15C8BFDDBED867E
:044F820072B3338053
:104F86003031323334353637383941424344454679
:014F9600001A
:104F970030313233343536373839616263646566A8
:014FA7000009
:104FA8002B3401907F9D308BE7FF59850000007FEF
:094FB800252E326620487A200003
:094FC100252E326620487A2000FA
:094FCA00252E326620487A2000F1
:094FD300252E326620487A2000E8
:094FDC00252E326620487A2000DF
:094FE500252E326620487A2000D6
:094FEE00252E326620487A2000CD
:084FF7001F1F1F001F1F1F1FD9
:084FFF000E1F0E001F1F1F1FF3
:085007001F1F1F000000000044
:08500F000102000E111F110047
:08501700000000000C121E1243
:020000040030CA
:0D000100021F1EFF0181FF0FC00FE00F4026
:00000001FF
